:020000040800F2
:10000000008000202DC60008CDC40008D5C400081B
:10001000EFC40008F1C40008F3C4000800000000A9
:10002000000000000000000000000000F5C400080F
:10003000F7C4000800000000F9C40008FBC4000871
:1000400075C6000875C6000875C6000875C60008A4
:1000500075C6000875C6000807C5000875C6000803
:1000600075C6000875C6000875C6000875C6000884
:1000700075C6000875C6000875C6000875C6000874
:1000800075C6000875C6000811C5000875C60008C9
:1000900075C6000875C6000875C6000875C6000854
:1000A00075C6000875C6000821C5000831C50008DE
:1000B00075C6000875C6000875C6000875C6000834
:1000C00075C6000875C6000875C6000875C6000824
:1000D00075C6000841C5000875C6000875C6000849
:1000E00075C6000875C6000875C6000875C6000804
:1000F00075C600080000000075C6000875C6000837
:10010000000000000000000075C6000875C6000869
:1001100075C6000875C6000875C600080000000016
:1001200075C600080000000000000000000000008C
:0C01300000000000000000005FF808F173
:1001400010B5054C237833B9044B13B10448AFF311
:1001500000800123237010BDB802002000000000C1
:10016000703A010808B5034B1BB103490348AFF3CC
:10017000008008BD00000000BC020020703A0108A9
:1001800081F0004102E000BF83F0004330B54FEA48
:1001900041044FEA430594EA050F08BF90EA020FB5
:1001A0001FBF54EA000C55EA020C7FEA645C7FEA48
:1001B000655C00F0E2804FEA5454D4EB5555B8BF6B
:1001C0006D420CDD2C4480EA020281EA030382EADC
:1001D000000083EA010180EA020281EA0303362D6E
:1001E00088BF30BD11F0004F4FEA01314FF4801C41
:1001F0004CEA113102D0404261EB410113F0004F53
:100200004FEA03334CEA133302D0524263EB430309
:1002100094EA050F00F0A780A4F10104D5F1200EA7
:100220000DDB02FA0EFC22FA05F2801841F1000102
:1002300003FA0EF2801843FA05F359410EE0A5F1D6
:1002400020050EF1200E012A03FA0EFC28BF4CF007
:10025000020C43FA05F3C01851EBE37101F00045BD
:1002600007D54FF0000EDCF1000C7EEB00006EEBCA
:100270000101B1F5801F1BD3B1F5001F0CD3490854
:100280005FEA30004FEA3C0C04F101044FEA4452AB
:1002900012F5800F80F09A80BCF1004F08BF5FEA32
:1002A000500C50F1000041EB045141EA050130BD12
:1002B0005FEA4C0C404141EB010111F4801FA4F1B5
:1002C0000104E9D191F0000F04BF01460020B1FA0A
:1002D00081F308BF2033A3F10B03B3F120020CDA42
:1002E0000C3208DD02F1140CC2F10C0201FA0CF020
:1002F00021FA02F10CE002F11402D8BFC2F1200C85
:1003000001FA02F120FA0CFCDCBF41EA0C0190403A
:10031000E41AA2BF01EB0451294330BD6FEA040483
:100320001F3C1CDA0C340EDC04F11404C4F120026E
:1003300020FA04F001FA02F340EA030021FA04F380
:1003400045EA030130BDC4F10C04C4F1200220FAD7
:1003500002F001FA04F340EA0300294630BD21FA15
:1003600004F0294630BD94F0000F83F4801306BFDB
:1003700081F480110134013D4EE77FEA645C18BFCF
:100380007FEA655C29D094EA050F08BF90EA020F66
:1003900005D054EA000C04BF1946104630BD91EA5E
:1003A000030F1EBF0021002030BD5FEA545C05D161
:1003B0004000494128BF41F0004130BD14F58004A0
:1003C0003CBF01F5801130BD01F0004545F0FE4114
:1003D00041F470014FF0000030BD7FEA645C1ABF49
:1003E000194610467FEA655C1CBF0B46024650EA80
:1003F000013406BF52EA033591EA030F41F40021AC
:1004000030BD00BF90F0000F04BF0021704730B531
:100410004FF4806404F132044FF000054FF0000106
:1004200050E700BF90F0000F04BF0021704730B5C7
:100430004FF4806404F1320410F0004548BF40429C
:100440004FF000013EE700BF42004FEAE2014FEAF1
:1004500031014FEA02701FBF12F07F4393F07F4FCC
:1004600081F06051704732F07F4208BF704793F0CF
:100470007F4F04BF41F40021704730B54FF46074E2
:1004800001F0004521F000411CE700BF50EA0102E5
:1004900008BF704730B54FF000050AE050EA01028E
:1004A00008BF704730B511F0004502D5404261EBFE
:1004B00041014FF4806404F132045FEA915C3FF43F
:1004C000D8AE4FF003025FEADC0C18BF03325FEADC
:1004D000DC0C18BF033202EBDC02C2F1200300FA8D
:1004E00003FC20FA02F001FA03FE40EA0E0021FAB2
:1004F00002F11444BDE600BF70B54FF0FF0C4CF4A0
:10050000E06C1CEA11541DBF1CEA135594EA0C0F51
:1005100095EA0C0F00F0DEF82C4481EA030621EA8C
:100520004C5123EA4C5350EA013518BF52EA0335C7
:1005300041F4801143F4801338D0A0FB02CE4FF079
:100540000005E1FB02E506F00042E0FB03E54FF0A9
:100550000006E1FB03569CF0000F18BF4EF0010EA1
:10056000A4F1FF04B6F5007F64F5407404D25FEA9D
:100570004E0E6D4146EB060642EAC62141EA555150
:100580004FEAC52040EA5E504FEACE2EB4F1FD0C92
:1005900088BFBCF5E06F1ED8BEF1004F08BF5FEA10
:1005A000500E50F1000041EB045170BD06F00046C2
:1005B00046EA010140EA020081EA0301B4EB5C046F
:1005C000C2BFD4EB0C0541EA045170BD41F4801167
:1005D0004FF0000E013C00F3AB8014F1360FDEBF8C
:1005E000002001F0004170BDC4F10004203C35DA68
:1005F0000C341BDC04F11404C4F1200500FA05F3EB
:1006000020FA04F001FA05F240EA020001F000428B
:1006100021F0004110EBD37021FA04F642EB060101
:100620005EEA430E08BF20EAD37070BDC4F10C042B
:10063000C4F1200500FA04F320FA05F001FA04F2EF
:1006400040EA020001F0004110EBD37041F10001DB
:100650005EEA430E08BF20EAD37070BDC4F12005E6
:1006600000FA05F24EEA020E20FA04F301FA05F24E
:1006700043EA020321FA04F001F0004121FA04F2F6
:1006800020EA020000EBD3705EEA430E08BF20EAC6
:10069000D37070BD94F0000F0FD101F00046400000
:1006A00041EB010111F4801F08BF013CF7D041EA82
:1006B000060195F0000F18BF704703F00046520086
:1006C00043EB030313F4801F08BF013DF7D043EA57
:1006D0000603704794EA0C0F0CEA135518BF95EA0D
:1006E0000C0F0CD050EA410618BF52EA4306D1D194
:1006F00081EA030101F000414FF0000070BD50EAB3
:10070000410606BF1046194652EA430619D094EA3C
:100710000C0F02D150EA013613D195EA0C0F05D126
:1007200052EA03361CBF104619460AD181EA03017A
:1007300001F0004141F0FE4141F470014FF0000032
:1007400070BD41F0FE4141F4780170BD70B54FF0CD
:10075000FF0C4CF4E06C1CEA11541DBF1CEA13554D
:1007600094EA0C0F95EA0C0F00F0A7F8A4EB05042F
:1007700081EA030E52EA03354FEA013100F0888026
:100780004FEA03334FF0805545EA131343EA1263EF
:100790004FEA022245EA111545EA10654FEA0026A4
:1007A0000EF000419D4208BF964244F1FD0404F55D
:1007B000407402D25B084FEA3202B61A65EB0305B9
:1007C0005B084FEA32024FF480104FF4002CB6EB76
:1007D000020E75EB030E22BFB61A754640EA0C00F6
:1007E0005B084FEA3202B6EB020E75EB030E22BF36
:1007F000B61A754640EA5C005B084FEA3202B6EB77
:10080000020E75EB030E22BFB61A754640EA9C0035
:100810005B084FEA3202B6EB020E75EB030E22BF05
:10082000B61A754640EADC0055EA060E18D04FEAC3
:10083000051545EA16754FEA06164FEAC30343EA63
:1008400052734FEAC2025FEA1C1CC0D111F4801F30
:100850000BD141EA00014FF000004FF0004CB6E729
:1008600011F4801F04BF01430020B4F1FD0C88BFC8
:10087000BCF5E06F3FF6AFAEB5EB030C04BFB6EBD3
:10088000020C5FEA500C50F1000041EB045170BDC6
:100890000EF0004E4EEA113114EB5C04C2BFD4EBF3
:1008A0000C0541EA045170BD41F480114FF0000E77
:1008B000013C90E645EA060E8DE60CEA135594EAF3
:1008C0000C0F08BF95EA0C0F3FF43BAF94EA0C0FF6
:1008D0000AD150EA01347FF434AF95EA0C0F7FF46B
:1008E00025AF104619462CE795EA0C0F06D152EABF
:1008F00003353FF4FDAE1046194622E750EA4106A3
:1009000018BF52EA43067FF4C5AE50EA41047FF4B3
:100910000DAF52EA43057FF4EBAE12E74FF0FF3C18
:1009200006E000BF4FF0010C02E000BF4FF0010CE9
:100930004DF804CD4FEA410C7FEA6C5C4FEA430C62
:1009400018BF7FEA6C5C1BD001B050EA410C0CBFB1
:1009500052EA430C91EA030F02BF90EA020F002013
:10096000704710F1000F91EA030F58BF994208BF7A
:1009700090422CBFD8176FEAE37040F00100704737
:100980004FEA410C7FEA6C5C02D150EA013C07D18E
:100990004FEA430C7FEA6C5CD6D152EA033CD3D0D9
:1009A0005DF8040B704700BF8446104662468C46D3
:1009B0001946634600E000BF01B5FFF7B7FF002806
:1009C00048BF10F1000F01BD4DF808EDFFF7F4FF2F
:1009D0000CBF012000205DF808FB00BF4DF808EDBA
:1009E000FFF7EAFF34BF012000205DF808FB00BFDD
:1009F0004DF808EDFFF7E0FF94BF012000205DF8FF
:100A000008FB00BF4DF808EDFFF7CEFF94BF0120B3
:100A100000205DF808FB00BF4DF808EDFFF7C4FFAC
:100A200034BF012000205DF808FB00BF4FEA4102FF
:100A300012F5001215D211D56FF47873B3EB625230
:100A400012D94FEAC12343F0004343EA505311F057
:100A5000004F23FA02F018BF404270474FF00000E9
:100A6000704750EA013005D111F0004008BF6FF027
:100A7000004070474FF00000704700BF4A0011D29D
:100A800012F5001211D20DD56FF47873B3EB6252E8
:100A90000ED44FEAC12343F0004343EA505323FAF4
:100AA00002F070474FF00000704750EA013002D169
:100AB0004FF0FF3070474FF0000070474FEA41029F
:100AC000B2F1E04324BFB3F5001CDCF1FE5C0DD9AC
:100AD00001F0004C4FEAC0024CEA5070B2F1004FF6
:100AE00040EB830008BF20F00100704711F0804FF9
:100AF00021D113F13872BCBF01F00040704741F4BE
:100B000080114FEA5252C2F11802C2F1200C10FAC1
:100B10000CF320FA02F018BF40F001004FEAC123A5
:100B20004FEAD32303FA0CFC40EA0C0023FA02F349
:100B30004FEA4303CCE77FEA625307D150EA01331F
:100B40001EBF4FF0FE4040F44000704701F00040EF
:100B500040F0FE4040F40000704700BF80F00040CD
:100B600002E000BF81F0004142001FBF5FEA410385
:100B700092EA030F7FEA226C7FEA236C6AD04FEA85
:100B80001262D2EB1363C1BFD218414048404140CA
:100B9000B8BF5B42192B88BF704710F0004F40F47C
:100BA000000020F07F4018BF404211F0004F41F498
:100BB000000121F07F4118BF494292EA030F3FD064
:100BC000A2F1010241FA03FC10EB0C00C3F1200377
:100BD00001FA03F100F0004302D5494260EB400006
:100BE000B0F5000F13D3B0F1807F06D340084FEA71
:100BF000310102F10102FE2A51D2B1F1004F40EB66
:100C0000C25008BF20F0010040EA030070474900CD
:100C100040EB000010F4000FA2F10102EDD1B0FA98
:100C200080FCACF1080CB2EB0C0200FA0CF0AABF8D
:100C300000EBC25052421843BCBFD040184370472B
:100C400092F0000F81F4000106BF80F40000013231
:100C5000013BB5E74FEA41037FEA226C18BF7FEA08
:100C6000236C21D092EA030F04D092F0000F08BF4A
:100C70000846704790EA010F1CBF0020704712F031
:100C80007F4F04D1400028BF40F00040704712F170
:100C900000723CBF00F50000704700F0004343F0D5
:100CA000FE4040F4000070477FEA226216BF08460B
:100CB0007FEA23630146420206BF5FEA412390EACE
:100CC000010F40F4800070474FF0000304E000BFC4
:100CD00010F0004348BF40425FEA000C08BF704775
:100CE00043F0964301464FF000001CE050EA010239
:100CF00008BF70474FF000030AE000BF50EA01024E
:100D000008BF704711F0004302D5404261EB41013A
:100D10005FEA010C02BF84460146002043F0B6435F
:100D200008BFA3F18053A3F50003BCFA8CF2083A84
:100D3000A3EBC25310DB01FA02FC634400FA02FC8D
:100D4000C2F12002BCF1004F20FA02F243EB020094
:100D500008BF20F00100704702F1200201FA02FCF6
:100D6000C2F1200250EA4C0021FA02F243EB0200E9
:100D700008BF20EADC7070474FF0FF0C1CEAD0522D
:100D80001EBF1CEAD15392EA0C0F93EA0C0F6FD0EE
:100D90001A4480EA010C400218BF5FEA41211ED0CC
:100DA0004FF0006343EA501043EA5111A0FB0131B8
:100DB0000CF00040B1F5000F3EBF490041EAD3718D
:100DC0005B0040EA010062F17F02FD2A1DD8B3F109
:100DD000004F40EBC25008BF20F00100704790F078
:100DE000000F0CF0004C08BF49024CEA502040EACA
:100DF00051207F3AC2BFD2F1FF0340EAC250704790
:100E000040F400004FF00003013A5DDC12F1190FCD
:100E1000DCBF00F000407047C2F10002410021FA3F
:100E200002F1C2F1200200FA02FC5FEA310040F157
:100E3000000053EA4C0308BF20EADC70704792F0D0
:100E4000000F00F0004C02BF400010F4000F013A08
:100E5000F9D040EA0C0093F0000F01F0004C02BF03
:100E6000490011F4000F013BF9D041EA0C018FE772
:100E70000CEAD15392EA0C0F18BF93EA0C0F0AD078
:100E800030F0004C18BF31F0004CD8D180EA01009E
:100E900000F00040704790F0000F17BF90F0004F37
:100EA000084691F0000F91F0004F14D092EA0C0F19
:100EB00001D142020FD193EA0C0F03D14B0218BFAC
:100EC000084608D180EA010000F0004040F0FE40F2
:100ED00040F40000704740F0FE4040F4400070478E
:100EE0004FF0FF0C1CEAD0521EBF1CEAD15392EA0D
:100EF0000C0F93EA0C0F69D0A2EB030280EA010CFD
:100F000049024FEA402037D04FF0805343EA111195
:100F100043EA10130CF000408B4238BF5B0042F1F3
:100F20007D024FF4000C8B4224BF5B1A40EA0C0098
:100F3000B3EB510F24BFA3EB510340EA5C00B3EBCA
:100F4000910F24BFA3EB910340EA9C00B3EBD10FB8
:100F500024BFA3EBD10340EADC001B0118BF5FEA0A
:100F60001C1CE0D1FD2A3FF650AF8B4240EBC25033
:100F700008BF20F0010070470CF0004C4CEA5020F4
:100F80007F32C2BFD2F1FF0340EAC250704740F443
:100F900000004FF00003013A37E792F0000F00F035
:100FA000004C02BF400010F4000F013AF9D040EAB3
:100FB0000C0093F0000F01F0004C02BF490011F447
:100FC000000F013BF9D041EA0C0195E70CEAD1533F
:100FD00092EA0C0F08D142027FF47DAF93EA0C0F26
:100FE0007FF470AF084676E793EA0C0F04D14B020A
:100FF0003FF44CAF08466EE730F0004C18BF31F0BC
:10100000004CCAD130F000427FF45CAF31F00043B5
:101010007FF43CAF5FE700BF4FF0FF3C06E000BF4E
:101020004FF0010C02E000BF4FF0010C4DF804CD71
:101030004FEA40024FEA41037FEA226C18BF7FEA81
:10104000236C11D001B052EA530C18BF90EA010F83
:1010500058BFB2EB030088BFC81738BF6FEAE17012
:1010600018BF40F0010070477FEA226C02D15FEAAE
:10107000402C05D17FEA236CE4D15FEA412CE1D01A
:101080005DF8040B704700BF844608466146FFE7E1
:101090000FB5FFF7C9FF002848BF10F1000F0FBDC3
:1010A0004DF808EDFFF7F4FF0CBF012000205DF8BC
:1010B00008FB00BF4DF808EDFFF7EAFF34BF012041
:1010C00000205DF808FB00BF4DF808EDFFF7E0FFDA
:1010D00094BF012000205DF808FB00BF4DF808ED2B
:1010E000FFF7D2FF94BF012000205DF808FB00BF8E
:1010F0004DF808EDFFF7C8FF34BF012000205DF870
:1011000008FB00BF4FEA40024FEA41037FEA226C2E
:1011100002D15FEA402C08D17FEA236C02D15FEA5A
:10112000412C02D14FF0000070474FF00100704792
:101130004FEA4002B2F1FE4F0FD34FF09E03B3EBE4
:1011400012620DD94FEA002343F0004310F0004F24
:1011500023FA02F018BF404270474FF0000070477A
:1011600012F1610F01D1420205D110F0004008BF19
:101170006FF0004070474FF00000704742000ED201
:10118000B2F1FE4F0BD34FF09E03B3EB126209D4C2
:101190004FEA002343F0004323FA02F070474FF078
:1011A0000000704712F1610F01D1420202D14FF0ED
:1011B000FF3070474FF00000704700BF10F8012B60
:1011C00011F8013B012A28BF9A42F7D0D01A704784
:1011D000034613F8012B002AFBD1181A0138704777
:1011E0004FEA410C7FEA6C5C02D150EA013C0AD123
:1011F0004FEA430C7FEA6C5C02D152EA033C02D115
:101200004FF0000070474FF00100704710B50446E2
:10121000074B1868074BA3FB0030800900F070FBF8
:10122000002221464FF0FF3000F01EFB002010BDD1
:1012300060000020D34D621008B5032000F002FBCF
:101240000020FFF7E3FF0BF01FF8002008BD0000AF
:10125000024A136801331360704700BFF80700208B
:10126000014B1868704700BFF807002010B582B026
:101270000190FFF7F5FF0446FFF7F2FF001B019B0B
:101280009842F9D302B010BD024A136823F002035A
:101290001360704710E000E0024A136843F0020355
:1012A0001360704710E000E0024A536843F0020305
:1012B00053607047002004E0002800F0BA8070B549
:1012C00082B00446C36C002B5CD0E36C13F0100FAB
:1012D00040F0B180E36C23F4885323F0020343F021
:1012E0000203E364554A536823F4403361680B43B7
:1012F0005360E36862691343E16B4FF4007292FA42
:10130000A2F2B2FA82F201FA02F21343226A1A43FB
:10131000606A022393FAA3F3B3FA83F300FA03F3A8
:101320001343626B102A02D0A16B0A431343256852
:101330002A6812F0400213D1A1690B43A168E66943
:1013400031432669B6F5807F2FD0012E2AD00A437B
:10135000E16A01292CD06868394901400A436A6072
:1013600021688868374A02401A438A602269B2F5C8
:10137000807F34D0012A32D021680A6B22F0F872C3
:101380000A633BE0036580F848302F4B1A6A42F04D
:1013900001021A621B6A03F001030193019B0AF028
:1013A000C3FF92E74FF48072D1E74FF48072CEE72B
:1013B00060B9216B01394FF4604090FAA0F0B0FAA7
:1013C00080F0814041F400610A43C4E7E16C41F0E0
:1013D0002001E164216D41F001012165BBE7256831
:1013E0002A6B22F0F872A16A01394FF0F87090FA76
:1013F000A0F0B0FA80F081400A432A632268916825
:10140000124A0A409A420BD0E36C23F0120343F0D5
:101410001003E364236D43F00103236501200BE017
:1014200000202065E36C23F0030343F00103E36431
:1014300002E001207047012002B070BD002701408A
:10144000FF16FCFC89F1FFC000380240FEFF80BFA0
:101450000368986D70477047704738B50446036855
:101460005A6812F0200F30D01A6812F0020F2CD0F8
:10147000C26C12F0100F03D1C26C42F40072C2644D
:101480009A6812F0405F19D1626ABAB91A6B12F009
:10149000F87F03D09A6812F4806F0FD15A6822F057
:1014A00020025A60E36C23F48073E364E36C13F46A
:1014B000805F03D1E36C43F00103E364204609F04D
:1014C00099F823686FF012021A6023685A6812F0C4
:1014D000800F38D01A6812F0040F34D0E26C12F08A
:1014E000100F03D1E26C42F40052E2649A6812F4E5
:1014F000401F21D15A6C12F4401F03D09A6812F495
:10150000806F19D15A6812F4806F15D19A6812F061
:10151000405F11D1626A7AB95A6822F080025A603B
:10152000E36C23F48053E364E36C13F4807F03D112
:10153000E36C43F00103E364204600F082F9236882
:101540006FF00C021A6023685A6812F0400F03D043
:101550001B6813F0010F09D123685A6812F0806FDD
:1015600003D01A6812F0200F0CD138BDE36C43F49D
:101570008033E3642046FFF76EFF23686FF00102BB
:101580001A60E9E7226D42F0020222656FF0200541
:101590001D602046FFF760FF23681D60E5E700003F
:1015A00030B482B00023019390F84830012B00F052
:1015B000B980012380F848304B68062B28D805688D
:1015C0002A6C03EB8303053B1F249C4022EA0402A0
:1015D0000C6804FA03F313432B640B68092B59D8E6
:1015E00005686A6903EB430307249C4022EA04026E
:1015F0008C6804FA03F313436B610B68103B012BF7
:101600006CD9002380F84830184602B030BC7047CF
:101610000C2B0ED80568EA6B03EB8303233B1F24D6
:101620009C4022EA04020C6804FA03F31343EB63C0
:10163000D3E7122B0ED80568AA6B03EB8303413B5B
:101640001F249C4022EA04020C6804FA03F31343AB
:10165000AB63C2E7182B0ED805686A6B03EB8303F4
:101660005F3B1F249C4022EA04020C6804FA03F347
:1016700013436B63B1E705682A6B03EB83037D3B80
:101680001F249C4022EA04020C6804FA03F313436B
:101690002B63A2E7132B0ED805682A6903EB4303DB
:1016A0001E3B07249C4022EA04028C6804FA03F3E0
:1016B00013432B61A1E71A2B0ED80568EA6803EBE8
:1016C00043033C3B07249C4022EA04028C6804FA52
:1016D00003F31343EB6090E700BF8EE7124B5B68A8
:1016E00013F4000F8DD1104A536843F40003536084
:1016F0000B68102B85D10D4B1B6802F1467202F569
:101700002D3202F28332A2FB03239B0C03EB8303F3
:101710005A00019202E0019B013B0193019B002BC7
:10172000F9D16EE7022070E7002701406000002039
:1017300030B583B00023019303681A6812F0400F9C
:1017400030D19A6842F001029A60184B1B68184A1F
:10175000A2FB03239B0C03EB4303019302E0019BD9
:10176000013B0193019B002BF9D10446FFF778FD63
:10177000054623681B6813F0400F11D1FFF770FD79
:10178000401B0228F5D9E36C43F01003E364236D9A
:1017900043F001032365002384F84830012002E070
:1017A000002000E0002003B030BD00BF600000203A
:1017B00083DE1B4390F84830012B3FD010B5044620
:1017C000012380F84830FFF7B3FF0246002830D1EC
:1017D000E36C23F4E06323F0010343F48073E364D8
:1017E0002368596811F4806F05D0E16C21F44051F1
:1017F00041F48051E164E16C11F4805F1BD0216DF4
:1018000021F006012165002184F848106FF02201C3
:10181000196021684B6843F0806343F020034B60FC
:101820002368996811F0405F03D1996841F08041C5
:101830009960104610BD00212165E4E702221046A0
:1018400070477047074AD36823F4E0631B041B0CFE
:10185000000200F4E060184340F0BF6040F4003044
:10186000D060704700ED00E030B4174BDB68C3F385
:101870000223C3F10704042C28BF04241D1D062DD8
:1018800018D9033B4FF0FF3505FA04F421EA0401AF
:10189000994005FA03F322EA0303194300280BDBFE
:1018A0000901C9B200F1604000F5614080F8001301
:1018B00030BC70470023E5E700F00F000901C9B212
:1018C000024B1954F4E700BF00ED00E014ED00E016
:1018D00000F01F02400901239340024A42F82030E1
:1018E000704700BF00E100E000F01F024009012343
:1018F00093402030014A42F82030704700E100E078
:101900000138B0F1807F0AD2064B5860064AF021B8
:1019100082F823100020986007221A607047012087
:10192000704700BF10E000E000ED00E0042805D0A3
:10193000054A136823F0040313607047024A1368D2
:1019400043F004031360704710E000E008B508F0AE
:1019500007FE08BDF0B482B0002336E0042400E0A6
:101960000024B4403C4302355B4E46F825405B4CB6
:101970002568D44304EA05064F6817F4803F01D078
:1019800042EA0506554D2E606D6804EA05064F686B
:1019900017F4003F01D042EA0506504D6E60AD6875
:1019A00004EA05064F6817F4801F01D042EA0506D5
:1019B0004A4DAE60ED682C404E6816F4001F01D011
:1019C00042EA0504454AD46001330A6832FA03F456
:1019D0007FD001249C402240F6D04D68022D01D0DA
:1019E000122D10D1DE08083650F826C003F0070586
:1019F000AF000F25BD402CEA050C0D69BD4045EA3E
:101A00000C0540F8265006685F000325BD40ED43F5
:101A100005EA060C4E6806F00306BE4046EA0C06D0
:101A200006604E6806F1FF3CBCF1010F03D9112E90
:101A300001D0122E10D1866805EA060CCE68BE4091
:101A400046EA0C068660466826EA04044E68C6F339
:101A500000169E4026434660C46825408C68BC4002
:101A60002C43C4604C6814F0805FADD01C4C256AD8
:101A700045F001052562246A04F001040194019CEB
:101A80009D08AE1C144C54F8267003F00304A60005
:101A90000F24B44027EA0407124CA0423FF460AF81
:101AA00004F58064A0420ED004F58064A0420CD0FE
:101AB00004F58064A0420AD004F58064A0423FF49B
:101AC0004DAF05244DE701244BE7022449E70324E9
:101AD00047E702B0F0BC704700000140000401403D
:101AE00000380240000002400369194201D1002081
:101AF00070470120704712B9090481617047816104
:101B00007047000008B5054B5B69034200D108BD72
:101B1000024B586109F07AFFF9E700BF0004014069
:101B200003685A6912F4806F0DD06FF480625A61B5
:101B30000423036400230363202280F83D2080F8FF
:101B40003C300120704700207047F8B506460C462F
:101B500017461D461EE02DB1FFF782FB069BC01AFB
:101B6000A84217D900233363202286F83D2086F847
:101B70003E3086F83C3003201AE033685B6924EA83
:101B800003039BB2B3FA83F35B099F420FD1B5F114
:101B9000FF3FE0D1C4F30743012BEED033689B69CC
:101BA00024EA03039BB2B3FA83F35B09EDE7002059
:101BB000F8BDF8B504460D4616461F4632E01A68D1
:101BC00042F400721A6023686FF480625A61042341
:101BD000236400232363202284F83D2084F83C30D2
:101BE00001202DE026B1FFF73BFBC01BB04219D905
:101BF00000232363202284F83D2084F83C30032016
:101C00001EE023685B6925EA03039BB2003318BF1B
:101C10000123A3B123685A6912F4806FCFD1B6F1C2
:101C2000FF3FDFD1C5F30743012BEAD023689B694F
:101C300025EA03039BB2003318BF0123E9E7002024
:101C4000F8BD70B504460D46164623685B6913F06F
:101C5000800F19D12046FFF763FFB8B9B5F1FF3FF8
:101C6000F3D025B1FFF7FCFA801BA842EDD9236C15
:101C700043F02003236400232363202284F83D20C3
:101C800084F83C30032000E0002070BD0120FCE718
:101C90002DE9F04184B004460E46174698460B9D48
:101CA0000268136843F48073136000950A9B002256
:101CB0004FF00111FFF749FF002847D1236806F0D4
:101CC000FE061E612B460A9A26492046FFF771FF41
:101CD00020B1236C042B3ED1012338E00023039371
:101CE00023685A6903929B690393039B2A460A99C6
:101CF0002046FFF7A6FF034648B1236C042B2CD1E6
:101D00002268136843F40073136001231FE0B8F1E5
:101D1000010F13D023683A0A1A612A460A9920460D
:101D2000FFF78FFF034668B1236C042B17D122689D
:101D3000136843F400731360012308E02268FFB2C4
:101D4000176104E02268FFB2176100E00323184620
:101D500004B0BDE8F0810323F9E70323F7E7032389
:101D6000F5E700BF020001002DE9F04184B0044610
:101D70000E46174698460B9D0268136843F480632D
:101D800013600268136843F48073136000950A9B24
:101D900000224FF00111FFF7D8FE002874D1F6B2EF
:101DA000236806F0FE021A612B460A9A3F49204634
:101DB000FFF7FFFE20B1236C042B6AD1012364E0FE
:101DC0000023039323685A6903929B690393039B3F
:101DD0002A460A992046FFF734FF48B1236C042BAA
:101DE00059D12268136843F40073136001234CE057
:101DF000B8F1010F12D12368FFB21F612A460A9978
:101E00002046FFF71EFF00B3236C042B47D1226846
:101E1000136843F400731360012336E023683A0A21
:101E20001A612A460A992046FFF70BFF48B1236C36
:101E3000042B32D12268136843F40073136001232A
:101E400023E02368FFB21F61D8E72268136843F4D8
:101E50008073136000950A9B00224FF00111204609
:101E6000FFF773FEE8B9236846F001061E612B46B2
:101E70000A9A0E492046FFF79CFE034628B1236CC0
:101E8000042B10D1012300E00323184604B0BDE861
:101E9000F0810323F9E70323F7E70323F5E703239F
:101EA000F3E70323F1E70323EFE700BF020001009C
:101EB00070B504460D46164623685B6913F0040F9F
:101EC00019D12046FFF72CFEB8B9B5F1FF3FF3D08A
:101ED00025B1FFF7C5F9801BA842EDD9236C43F06B
:101EE0002003236400232363202284F83D2084F808
:101EF0003C30032000E0002070BD0120FCE770B5FD
:101F000005460C4616462B685A6912F0400F22D13E
:101F10005A6912F0100F11D124B1FFF7A1F9801BFB
:101F2000A042F0D92B6C43F020032B64202385F8CA
:101F30003D30002385F83C30032070BD6FF0100267
:101F40005A6100232B642B63202285F83D2085F8FD
:101F50003C300120F1E70020EFE70000002800F00E
:101F6000A28070B5044690F83D30002B61D001F09E
:101F700093F84F4B984240F29880242384F83D30E8
:101F80002268136823F0010313604A4BA3FB00236C
:101F90009B0C21684A6822F03F021A434A60256878
:101FA0002A6A22F03F02666843498E4246D80133CE
:101FB00013432B622568EB6923F44F4323F0FF039F
:101FC00062683D498A4243D85200B0FBF2F0C0F348
:101FD0000B02032A00D804201843E86121680B682B
:101FE00023F0C003E269206A024313430B602168B7
:101FF0008B6823F4034323F0FF032269E068024364
:1020000013438B602168CB6823F0FF036269A069EA
:1020100002431343CB602268136843F0010313604B
:1020200000202064202384F83D30206384F83E00A3
:1020300070BD80F83C300AF0A1F998E74FF4967132
:1020400001FB03F31D49A1FB03139B090133AFE718
:10205000A6688EB902EB4201B0FBF1F1C1F30B01AE
:10206000B1FA81F14909E1B996B902EB4202B0FB3C
:10207000F2F040F40040AFE702EB820101EB810196
:10208000B0FBF1F1C1F30B01B1FA81F14909EAE7C3
:1020900002EB820202EB8202B0FBF2F040F440401D
:1020A0009AE7012098E7012070470120C0E700BFB0
:1020B0007F841E0083DE1B43A0860100D34D621087
:1020C0002DE9F04383B004460F4690469946BDF88B
:1020D0002C60FFF7C5F894F83D30DBB2202B40F0C0
:1020E000A48005460A9B002B00F0A4800EB90123B2
:1020F0009CE00090192301224FF002112046FFF7C7
:1021000024FD002840F0988094F83C30012B00F02A
:102110009580012384F83C3023681A6812F0010F7F
:1021200003D11A6842F001021A602268136823F48E
:1021300000631360212384F83D30402384F83E304F
:10214000002323640A9B636266853F4BE362638DD1
:10215000238501950C9B00934B4642463946204609
:10216000FFF796FDB0B1236C042B04D1002384F853
:102170003C3001235AE0002384F83C30032355E02F
:10218000236C042B5CD12268136843F40073136042
:1021900001234BE0238D002B28D02A460C992046A2
:1021A000FFF74FFD0028EBD1636A5A1C6262226878
:1021B0001B781361238D013B9BB22385628D013A0D
:1021C00092B262852268516911F0040FE2D0002BAF
:1021D000E0D0636A591C61621B781361238D013B57
:1021E0002385638D013B9BB26385D3E72A460C9917
:1021F0002046FFF75DFE034648B1236C042B21D136
:102200002268136843F40073136001230EE0216811
:102210000A6842F400720A60202284F83D200022FD
:1022200084F83E2084F83C2000E00223184603B0E6
:10223000BDE8F0830123F9E70223F7E70223F5E77E
:102240000323F3E70323F1E70000FFFF2DE9F04349
:1022500087B004460E4690469946BDF83C70FEF79E
:10226000FFFF94F83D30DBB2202B40F0498105465A
:102270000E9B002B00F049810FB9012641E100902F
:10228000192301224FF002112046FFF75EFC0028BF
:1022900040F03D8194F83C30012B00F03A8101235D
:1022A00084F83C3023681A6812F0010F03D11A68D1
:1022B00042F001021A602268136823F4006313607D
:1022C000222384F83D30402384F83E3000232364E9
:1022D0000E9B63626785934BE362638D2385019553
:1022E000109B00934B46424631462046FFF73CFD8B
:1022F000064660B1236C042B04D1002384F83C30E3
:102300000126FEE0002384F83C300326F9E0238D0B
:10231000012B0AD0022B1AD00023059323685A6997
:1023200005929B690593059B68E02268136823F476
:10233000806313600023039323685A6903929A69A8
:102340000392039A1A6842F400721A6056E02268F7
:10235000136823F4806313602268136843F40063F6
:1023600013600023049323685A6904929B690493C1
:10237000049B43E02A4610992046FFF7C0FD68B948
:1023800023681A69636A591C61621A70238D013BC4
:102390002385638D013B9BB263852FE0236C202B4B
:1023A00001D00126ADE00326ABE00095109B002292
:1023B0005D492046FFF7C9FB002840F0AC80226849
:1023C000136843F40073136023681A69636A591C25
:1023D00061621A70238D013B2385638D013B9BB2A3
:1023E000638523681A69636A591C61621A70238DB8
:1023F000013B2385638D013B9BB26385238D002BBD
:1024000075D0032B47D8012BB4D0022FCDD0009527
:10241000109B002244492046FFF797FB00287CD1FF
:102420002268136823F48063136023681A69636A5F
:10243000591C61621A70238D013B2385638D013B1A
:102440009BB263850095109B002237492046FFF719
:102450007CFB002863D12268136843F40073136087
:1024600023681A69636A591C61621A70238D013BE3
:102470002385638D013B9BB2638523681A69636A78
:10248000591C61621A70238D013B2385638D013BCA
:102490009BB26385B2E72A4610992046FFF72FFDCD
:1024A000F0B923681A69636A591C61621A70238D36
:1024B000013B2385638D013B9BB2638523685A6989
:1024C00012F0040F9AD01A69636A591C61621A707B
:1024D000238D013B2385638D013B9BB263858DE793
:1024E000236C202B01D001260BE0032609E02023DA
:1024F00084F83D30002384F83E3084F83C3000E01E
:102500000226304607B0BDE8F0830126F9E702262F
:10251000F7E70226F5E70326F3E70326F1E70326AC
:10252000EFE700BF0000FFFF0400010090F83D004E
:10253000704700000B4A136823F003031843106030
:10254000094A136943F004031361012908D040BF0D
:1025500020BF20BF044A136923F0040313617047AE
:1025600030BFF7E70070004000ED00E082B0214B83
:102570009B6813F0F00F2CD11E4B5B6A13F0805F49
:1025800008D01D4B1B6803F4C053B3F5C05F14D0D3
:1025900000211FE0174A536A43F080535362536A85
:1025A00003F080530193019B134B1B6803F4C0534A
:1025B000516A21F080515162E7E7B0F5404F01D0F8
:1025C000002107E00D4A136843F004031360012162
:1025D00000E00021094A136823F001030B43136054
:1025E000136803F001038B4202D0012002B0704750
:1025F0000020FBE70038024000700040003C024031
:1026000070B582B00446036813F0010F37D0754BE4
:102610009B6803F00C03082B1AD0724B9B6803F0E5
:102620000C030C2B0FD06368012B66D0002B40F0FD
:1026300088806C4B1A6822F480321A601A6822F47F
:1026400080221A605EE0674B9B6813F4803FEAD0FB
:102650004FF4003393FAA3F3624B19684FF400333D
:1026600093FAA3F3B3FA83F303F01F03012202FAF0
:1026700003F30B4203D06368002B00F078832368D8
:1026800013F0020F00F0BF80564B9B6803F00C0361
:10269000042B00F09080534B9B6803F00C030C2B31
:1026A00000F08380E368002B00F04B81012292FA56
:1026B000A2F3B3FA83F303F1845303F58E139B0063
:1026C0001A60FEF7CDFD0546022393FAA3F3454BAE
:1026D0001968022393FAA3F3B3FA83F303F01F03F9
:1026E000012202FA03F30B4240F01B81FEF7B8FD12
:1026F000401B0228E8D9032040E33A4A136843F418
:1027000080331360636893B3FEF7AAFD05464FF468
:10271000003393FAA3F3334B19684FF4003393FA61
:10272000A3F3B3FA83F303F01F03012202FA03F3C6
:102730000B42A4D1FEF794FD401B6428E7D9032087
:102740001CE3052B09D0274B1A6822F480321A604B
:102750001A6822F480221A60D4E7224B1A6842F4E5
:1027600080221A601A6842F480321A60CAE7FEF7C3
:1027700077FD05464FF4003393FAA3F3194B19681C
:102780004FF4003393FAA3F3B3FA83F303F01F0378
:10279000012202FA03F30B423FF471AFFEF760FD32
:1027A000401B6428E6D90320E8E20E4B9B6813F433
:1027B000803F7FF477AF022393FAA3F3094B1968A4
:1027C000022393FAA3F3B3FA83F303F01F03012266
:1027D00002FA03F30B4207D0E368934204D00120CE
:1027E000CCE200BF00380240C148436823F4F853EC
:1027F00021694FF4F85292FAA2F2B2FA82F201FA87
:1028000002F213434360236813F0100F5CD0B84BFF
:102810009B6813F00C0F40F0D8804FF4007393FACC
:10282000A3F3B34B19684FF4007393FAA3F3B3FA0D
:1028300083F303F01F03012202FA03F30B4203D0D8
:10284000A369002B00F09582206AA94B5B6803F412
:102850006043984240F29D80FFF788FE002840F0D8
:102860008A82A3494B6823F46043226A13434B6076
:102870004B6823F07F43E0694FF07F4292FAA2F267
:10288000B2FA82F200FA02F213434B60236A4FF469
:10289000604292FAA2F2B2FA82F2D3405A1C4FF48A
:1028A00000439340924A926802F0F002F02191FABC
:1028B000A1F1B1FA81F1CA408E498A5CD3408E4AB7
:1028C00013600020FEF7A2FC236813F0080F00F04D
:1028D00017816369002B00F0E680012191FAA1F2D3
:1028E000B2FA82F2854B13449B001960FEF7B8FCE4
:1028F0000546022393FAA3F27D4A516B93FAA3F3A0
:10290000B3FA83F303F01F03012202FA03F30B422D
:1029100040F0F680FEF7A4FC401B0228E9D9032012
:102920002CE27348436823F4F85321694FF4F852BA
:1029300092FAA2F2B2FA82F201FA02F2134343606F
:1029400061E7012393FAA3F3B3FA83F303F184530A
:1029500003F58E139B0000221A60FEF781FC0546EA
:10296000022393FAA3F3624B1968022393FAA3F3A9
:10297000B3FA83F303F01F03012202FA03F30B42BD
:102980003FF441AFFEF76CFC401B0228E8D903205E
:10299000F4E157494B6823F46043184348604B689F
:1029A00023F07F43E0694FF07F4292FAA2F2B2FA3D
:1029B00082F200FA02F213434B60206AFFF7D6FD61
:1029C00000283FF463AF0120D8E1A369002B3FD07A
:1029D0004FF4807393FAA3F3B3FA83F303F18453B0
:1029E00003F58E139B0001221A60FEF739FC0546A1
:1029F0004FF4007393FAA3F33D4B19684FF400733F
:102A000093FAA3F3B3FA83F303F01F03012202FA4C
:102A100003F30B4206D1FEF723FC401B0228E7D943
:102A20000320ABE132494B6823F46043226A13432D
:102A30004B604B6823F07F43E0694FF07F4292FA8E
:102A4000A2F2B2FA82F200FA02F213434B603BE7C1
:102A50004FF4807393FAA3F3B3FA83F303F184532F
:102A600003F58E139B0000221A60FEF7F9FB054662
:102A70004FF4007393FAA3F31D4B19684FF40073DE
:102A800093FAA3F3B3FA83F303F01F03012202FACC
:102A900003F30B423FF418AFFEF7E2FB401B0228A2
:102AA000E6D903206AE1012292FAA2F2B2FA82F296
:102AB000124B13449B0000221A60FEF7D1FB05461F
:102AC000022393FAA3F20A4A516B93FAA3F3B3FADF
:102AD00083F303F01F03012202FA03F30B420FD02A
:102AE000FEF7BEFB401B0228EAD9032046E100BFE7
:102AF000003802409491010860000020A0C19110AC
:102B0000236813F0040F00F092809E4B5B6A13F071
:102B1000805F1ED19B4B5A6A42F080525A625B6AB8
:102B200003F080530193019B0125974B1B6813F41D
:102B3000807F10D0A368012B21D0002B43D1914B73
:102B40005A6B22F480725A635A6B22F480625A6381
:102B50001AE00025E9E78C4A136843F48073136098
:102B6000FEF77EFB0646884B1B6813F4807FE1D19D
:102B7000FEF776FB801B6428F5D90320FEE0814A2E
:102B8000536B43F480735363A36893B3FEF768FBFE
:102B900006464FF4007393FAA3F27A4A516B93FA04
:102BA000A3F3B3FA83F303F01F03012202FA03F342
:102BB0000B423BD1FEF754FB801B41F28833984215
:102BC000E7D90320DAE0052B09D06E4B5A6B22F4CB
:102BD00080725A635A6B22F480625A63D4E7694B5D
:102BE0005A6B42F480625A635A6B42F480725A63A1
:102BF000CAE7FEF735FB06464FF4007393FAA3F2DB
:102C0000604A516B93FAA3F3B3FA83F303F01F0303
:102C1000012202FA03F30B4208D0FEF721FB801BCE
:102C200041F288339842E7D90320A7E0B5BB636A35
:102C3000002B00F0A280534A926802F00C020C2A8A
:102C400000F09E80022B2FD04FF0807393FAA3F3F5
:102C5000B3FA83F303F1845303F58E139B00002230
:102C60001A60FEF7FDFA04464FF0007393FAA3F3DF
:102C7000444B19684FF0007393FAA3F3B3FA83F34C
:102C800003F01F03012202FA03F30B426DD0FEF79B
:102C9000E7FA001B0228E7D903206FE0394A536A9C
:102CA00023F080535362C2E74FF0807393FAA3F38B
:102CB000B3FA83F303F1845303F58E139B000022D0
:102CC0001A60FEF7CDFA05464FF0007393FAA3F3AE
:102CD0002C4B19684FF0007393FAA3F3B3FA83F304
:102CE00003F01F03012202FA03F30B4206D0FEF7A2
:102CF000B7FA401B0228E7D903203FE021498B683F
:102D000023F47D03A26AE06A0243206B024313436B
:102D10008B604FF0807393FAA3F3B3FA83F303F15C
:102D2000845303F58E139B0001221A60FEF798FA74
:102D300004464FF0007393FAA3F3124B19684FF057
:102D4000007393FAA3F3B3FA83F303F01F03012292
:102D500002FA03F30B4206D1FEF782FA001B0228A7
:102D6000E7D903200AE0002008E0002006E0012067
:102D700004E0012002E0012000E0002002B070BD6C
:102D80000120FBE700380240007000404FF0805304
:102D900093FAA3F3B3FA83F303F1845303F58E1389
:102DA0009B0001221A607047224B986800F00C02C9
:102DB000082A3CD00C2A13D0042A0FD01D4B586887
:102DC00000F460404FF4604393FAA3F3B3FA83F343
:102DD000D840431C4FF40040984070471648704755
:102DE00000F470114FF4701292FAA2F2B2FA82F269
:102DF00021FA02F211498A5C00F440004FF44003CA
:102E000093FAA3F3B3FA83F3D8400130094B9B68DC
:102E100013F4803F05D00A4B03FB02F3B3FBF0F041
:102E20007047054B03FB02F3B3FBF0F07047044817
:102E3000704700BF003802400024F4008891010868
:102E400000127A008D4B1B6803F001038B4214D2F1
:102E500001290CD0894A136823F001030B43136046
:102E6000136803F001038B4207D001207047834AA7
:102E7000136843F004031360ECE770B5036813F0C4
:102E8000020F06D07E4A936823F0F0038468234340
:102E900093600C460546036813F0010F00F0A38011
:102EA0004368022B18D0032B48D0012B5BD04FF482
:102EB000007292FAA2F2724A10684FF4007292FA0B
:102EC000A2F2B2FA82F202F01F02012101FA02F22A
:102ED000024215D10120CDE04FF4003292FAA2F265
:102EE000674A10684FF4003292FAA2F2B2FA82F204
:102EF00002F01F02012101FA02F2024200F0BB803F
:102F00005F498A6822F0030213438B60FEF7A8F939
:102F100006466B68022B39D0032B46D0012B53D0C9
:102F2000574B9B6813F00C0F5DD0FEF799F9801B8F
:102F300041F288339842F3D903209BE04FF00072AE
:102F400092FAA2F24E4A10684FF0007292FAA2F280
:102F5000B2FA82F202F01F02012101FA02F20242E9
:102F6000CED1012086E0022292FAA2F2444A1068F1
:102F7000022292FAA2F2B2FA82F202F01F020121B8
:102F800001FA02F20242BBD1012073E03C4B9B6884
:102F900003F00C03082B26D0FEF762F9801B41F2E8
:102FA00088339842F2D9032064E0354B9B6803F0E4
:102FB0000C030C2B17D0FEF753F9801B41F288331A
:102FC0009842F2D9032055E02D4B9B6803F00C0387
:102FD000042B08D0FEF744F9801B41F28833984255
:102FE000F2D9032046E0254B1B6803F00103A342FE
:102FF00014D9012C0CD0214A136823F00103234378
:103000001360136803F00103A34207D0012031E0ED
:103010001A4A136843F004031360ECE72B6813F0BB
:10302000040F06D0164A936823F4E063E9680B4363
:1030300093602B6813F0080F07D0114A936823F4AC
:103040006053296943EAC1039360FFF7ADFE0C4B5F
:103050009B6803F0F003F02292FAA2F2B2FA82F235
:10306000D340084AD35CD840074B18600020FEF7D5
:10307000CDF8002070BD0120FCE700BF003C0240FD
:10308000003802409491010860000020014B18684C
:10309000704700BF6000002008B5FFF7F7FF074B3F
:1030A0009B6803F4E0634FF4E06292FAA2F2B2FA92
:1030B00082F2D340024AD35CD84008BD00380240B7
:1030C000A491010808B5FFF7E1FF074B9B6803F4E3
:1030D00060534FF4605292FAA2F2B2FA82F2D340F5
:1030E000024AD35CD84008BD00380240A4910108D0
:1030F0007047000008B5064BDB6813F0800F00D165
:1031000008BDFFF7F5FF034B80221A70F8E700BFF8
:10311000003802400E380240036813F0030F00F03D
:10312000BA80F0B583B05D4B5B6A13F0805F63D10A
:103130005A4B5A6A42F080525A625B6A03F08053DB
:103140000193019B01250446554B1B6813F4807FB6
:1031500054D0524B1B6803F0C043626802F0C04178
:1031600099425FD002F44033B3F5403F60D04B4BFF
:103170005B6B13F440332DD002F440329A4203D0FB
:10318000226812F0010F08D1A26802F440329A427C
:1031900020D0236813F0020F1CD04048416B21F46B
:1031A00040364FF4000393FAA3F2B2FA82F23D4F95
:1031B0003A4492004FF0010CC2F800C093FAA3F316
:1031C000B3FA83F33B449B0000221A60466311F478
:1031D000807F34D1636803F44032B2F5403F4BD076
:1031E0002E494B6B626802F4403213434B63002D4F
:1031F0004BD1002003B0F0BD0025A4E7284A136896
:1032000043F480731360FEF72BF80646244B1B68CB
:1032100013F4807F9DD1FEF723F8801B6428F5D935
:103220000320E7E7A16801F0C04199429AD19EE7E7
:103230001A4B1B6813F4003F99D00120DAE7FEF720
:103240000FF806464FF4007393FAA3F2134A516B3A
:1032500093FAA3F3B3FA83F303F01F03012202FAF4
:1032600003F30B42B6D1FDF7FBFF801B41F288331D
:103270009842E7D90320BDE708490A6822F0C04216
:1032800003F0C04313430B60AAE74B6A23F080535B
:103290004B620020AEE70020704700BF00380240BC
:1032A00000700040A0C191104FF4006292FAA2F2A7
:1032B000B2FA82F2024B13449B0001221A6070475B
:1032C000A0C1911038B50368DA6812F0400F01D040
:1032D000002038BD04464FF0FF32DA60FDF7C0FF32
:1032E00005462368DB6813F0400F07D1FDF7B8FFF0
:1032F000401BB0F57A7FF4D90320EAE70020E8E725
:1033000000284CD038B50446437F002B3CD0022324
:1033100063772368CA225A62236853225A6220467E
:10332000FFF7D0FF0246002832D121688B6823F4D2
:10333000E00323F040038B6020688168636825699F
:103340002B4365692B430B4383602368E168196154
:1033500021680B69A06843EA00430B612168CB68D0
:1033600023F08003CB6021680B6C23F480230B6473
:1033700021680B6CA06903430B642368FF21596229
:1033800001236377104638BD037709F021F8BEE7C3
:103390002368FF225A62042363770122F2E70122A5
:1033A00010467047002302E001330A38C0B20928F2
:1033B000FAD81B01DBB218437047037F012B71D091
:1033C00070B50E460446012303770223437752BBB0
:1033D00003689B6813F0400F01D10023CB70307855
:1033E000FFF7E0FF05047078FFF7DCFF45EA0025F2
:1033F000B078FFF7D7FF2843F57840EA0545236802
:10340000CA225A62236853225A622046FFF75AFFA3
:10341000D8B12368FF225A620423637700232377FD
:103420000123184670BD03689B6813F0400F01D15B
:103430000023CB7035787078000240EA0540B578FB
:103440002843F57840EA0545D9E7236805F07F353C
:1034500025F0FE451D602268936823F48023936065
:1034600021688B68F2683069024313438B602268DD
:10347000D36823F08003D360204600F0D2F80346DF
:1034800038B92268FF215162012262770022227737
:10349000C7E72368FF225A62042363770023237758
:1034A0000123BEE7022318467047037F012B60D03B
:1034B00070B501230377022343773AB94B7813F0B1
:1034C000100F03D003F0EF030A334B700E4604468F
:1034D0001ABBC878FFF766FF05047078FFF762FF34
:1034E00045EA0025B078FFF75DFF2843357840EACC
:1034F00045352368CA225A62236853225A622046FD
:10350000FFF7E0FEA0B12368FF225A62042363772D
:10351000002323770123184670BD48788D78CB7837
:10352000000240EA034028430D7840EA4535E0E7D1
:10353000236825F07F4525F0C0055D602268D368CB
:1035400023F08003D360204600F06BF8034638B9BF
:103550002268FF2151620122627700222277DAE796
:103560002368FF225A620423637700232377012311
:10357000D1E7022318467047030903EB83035A007F
:1035800000F00F001044C0B2704770B503685B686C
:1035900023F07F4323F0C003180CC870C3F3042644
:1035A0004E7003F03F058D70C3F342330B705AB970
:1035B0000C46FFF7E1FFE0703046FFF7DDFF60707B
:1035C0002846FFF7D9FFA070002070BD38B503680A
:1035D0009B6A9BB24B6003681B69C3F30E038B604D
:1035E00003681B6803F07F3323F0FE431C0C04F0D8
:1035F0003F000870C3F306254D708B7004F0400443
:10360000CC700AB1002038BD0C46FFF7B5FF207022
:103610006078FFF7B1FF6070A078FFF7ADFFA07092
:10362000F0E738B503689A6812F0200F01D0002047
:1036300038BD0446DA6822F0A002DA60FDF710FE19
:1036400005462368DB6813F0200F07D1FDF708FE5D
:10365000401BB0F57A7FF4D90320E9E70020E7E7C3
:103660000368B0F1804F0ED01C4A90420BD002F597
:103670008062904207D002F58062904203D002F54A
:103680007C42904203D123F070034A681343B0F1A7
:10369000804F16D0114A904213D002F580629042BA
:1036A0000FD002F5806290420BD002F57C4290422E
:1036B00007D002F58062904203D002F5806290420A
:1036C00003D123F44073CA68134303608B68C36259
:1036D0000B68836201234361704700BF0004004010
:1036E00010B4036A046A24F001040462846924F0BB
:1036F000F00444EA021223F00A030B4382610362DE
:1037000010BC704710B4036A23F01003036284698D
:10371000036A24F4704444EA023223F0A00343EA2B
:1037200001138261036210BC7047836823F0700349
:1037300041F0070119438160704710B4846824F494
:103740007F4442EA03230B432343836010BC70474A
:10375000A8B110B5044690F835305BB1022384F867
:103760003530211D2068FFF77BFF012384F83530B9
:10377000002010BD80F8343008F040FEEEE7012054
:1037800070470268D36843F00103D360026813688E
:1037900043F0010313600020704790F83430012B90
:1037A0007DD010B50446012380F83430022380F820
:1037B00035300268936823F47F4323F077039360E6
:1037C0000B68402B57D010D9702B3ED01FD8502BF0
:1037D00047D0602B32D1CA6849680068FFF792FF72
:1037E00060212068FFF7A1FF28E0102B4DD008D9F9
:1037F000202B4FD0302B21D130210068FFF795FFCF
:103800001CE0DBB900210068FFF78FFF16E0B3F57D
:10381000805F0ED0B3F5005F10D1CB684A6889682D
:103820000068FFF78AFF2268936843F4804393603F
:1038300004E00268936823F007039360012384F88F
:103840003530002084F8340010BDCB684A688968A0
:103850000068FFF772FF2268936843F07703936074
:10386000ECE7CA6849680068FFF73AFF5021206812
:10387000FFF75BFFE2E7CA6849680068FFF730FFBF
:1038800040212068FFF751FFD8E710210068FFF7BB
:103890004CFFD3E720210068FFF747FFCEE7022067
:1038A0007047704770477047704710B5044603680B
:1038B0001A6912F0020F11D0DA6812F0020F0DD05F
:1038C0006FF002021A610123037503689B6913F00C
:1038D000030F5ED0FFF7E6FF0023237523681A6904
:1038E00012F0040F12D0DA6812F0040F0ED06FF04D
:1038F00004021A610223237523689B6913F4407F35
:103900004DD02046FFF7CEFF0023237523681A69A8
:1039100012F0080F12D0DA6812F0080F0ED06FF014
:1039200008021A61042323752368DB6913F0030F6F
:103930003CD02046FFF7B6FF0023237523681A69A1
:1039400012F0100F12D0DA6812F0100F0ED06FF0D4
:1039500010021A61082323752368DB6913F4407F82
:103960002BD02046FFF79EFF0023237523681A699A
:1039700012F0010F03D0DA6812F0010F24D123688E
:103980001A6912F0400F03D0DA6812F0400F22D10A
:1039900010BDFFF786FF2046FFF785FF9CE7204616
:1039A000FFF77FFF2046FFF77EFFADE72046FFF7DA
:1039B00078FF2046FFF777FFBEE72046FFF771FF4D
:1039C0002046FFF770FFCFE76FF001021A61204633
:1039D00006F0DEFDD3E76FF040021A612046FFF7E4
:1039E00063FFD5E790F83930DBB2122B01D0322BD0
:1039F0002AD18368B3F5805F16D0036A5A1C02622D
:103A00001A7803685A60C38C013B9BB2C384EBB93C
:103A10000268D36823F08003D3600268D36843F060
:103A20004003D36000207047036A1B880268C3F319
:103A30000803536003691BB9036A02330362E2E7B8
:103A4000036A01330362DEE70220704700207047FB
:103A50002DE9F84304460268136923F44053C16812
:103A60000B43136183680269134342691343C269BC
:103A70001A430168CB6823F4164323F00C03134365
:103A8000CB600268536923F4407381690B4353612F
:103A9000C369B3F5004F5CD00268B34B9A4200F0A3
:103AA0000C81FFF7F9FA00EB800000EB80006568FD
:103AB000AD00B0FBF5F5AD4FA7FB05356D092E0147
:103AC000FFF7EAFA00EB800000EB80006568AD00CC
:103AD000B0FBF5F9FFF7E0FA00EB800000EB8000A7
:103AE0006568AD00B0FBF5F5A7FB05356D094FF036
:103AF000640808FB15952D013235A7FB05356D09C6
:103B000005F0F0053544FFF7C7FA00EB800000EB45
:103B100080006668B600B0FBF6F6FFF7BDFA00EB72
:103B2000800000EB800063689B00B0FBF3F0A7FB14
:103B30000030400908FB10684FEA081808F1320805
:103B4000A7FB0837C7F3431723682F449F60BDE8DE
:103B5000F8830268844B9A4257D0FFF79DFA00EB36
:103B6000800000EB800065686D00B0FBF5F57F4FCD
:103B7000A7FB05356D092E01FFF78EFA00EB8000DB
:103B800000EB800065686D00B0FBF5F9FFF784FA83
:103B900000EB800000EB800065686D00B0FBF5F580
:103BA000A7FB05356D094FF0640808FB1595ED007E
:103BB0003235A7FB05356D096D0005F4F875354400
:103BC000FFF76AFA00EB800000EB80006668760081
:103BD000B0FBF6F6FFF760FA00EB800000EB800028
:103BE00063685B00B0FBF3F3A7FB03235B0908FBEF
:103BF00013684FEAC80808F13208A7FB0837C7F373
:103C0000421723682F449F60A1E7FFF75BFA00EBA0
:103C1000800000EB800065686D00B0FBF5F5534F48
:103C2000A7FB05356D092E01FFF74CFA00EB80006C
:103C300000EB800065686D00B0FBF5F9FFF742FA14
:103C400000EB800000EB800065686D00B0FBF5F5CF
:103C5000A7FB05356D094FF0640808FB1595ED00CD
:103C60003235A7FB05356D096D0005F4F87535444F
:103C7000FFF728FA00EB800000EB80006668760012
:103C8000B0FBF6F6FFF71EFA00EB800000EB8000B9
:103C900063685B00B0FBF3F3A7FB03235B0908FB3E
:103CA00013684FEAC80808F13208A7FB0837C7F3C2
:103CB000421723682F449F6049E7FFF703FA00EBA0
:103CC000800000EB80006568AD00B0FBF5F5274F84
:103CD000A7FB05356D092E01FFF7F4F900EB800015
:103CE00000EB80006568AD00B0FBF5F9FFF7EAF97D
:103CF00000EB800000EB80006568AD00B0FBF5F5DF
:103D0000A7FB05356D094FF0640808FB15952D01DB
:103D10003235A7FB05356D0905F0F0053544FFF791
:103D2000D1F900EB800000EB80006668B600B0FBC4
:103D3000F6F6FFF7C7F900EB800000EB8000636840
:103D40009B00B0FBF3F3A7FB03235B0908FB13689D
:103D50004FEA081808F13208A7FB0837C7F34317E2
:103D600023682F449F60F2E6003801401F85EB5125
:103D700048B310B5044690F83930FBB1022384F8FB
:103D800039302268D36823F40053D3602046FFF70C
:103D90005FFE2268136923F490431361226853691C
:103DA00023F02A0353612268D36843F40053D3609D
:103DB0000020E063012384F8393010BD80F83830EA
:103DC00008F054FBDAE70120704790F83930DBB295
:103DD000012B01D0222B23D121B32AB390F8383004
:103DE000012B23D0012380F8383001628284C28401
:103DF0000023C36390F83930DBB2222B0CD012239E
:103E000080F83930002380F838300168CA6842F001
:103E10008002CA6018467047322380F83930F1E7D3
:103E20000220704701207047012070470220704730
:103E300090F83930DBB2012B01D0122B2FD10029A1
:103E40002FD0002A2FD090F83830012B2DD001230D
:103E500080F8383081628285C2850023C36390F880
:103E60003930DBB2122B16D0222380F839300023F0
:103E700080F838300168CA6842F48072CA6001680C
:103E80004A6942F001024A610168CA6842F02002B0
:103E9000CA6018467047322380F83930E7E70220BD
:103EA000704701207047012070470220704708B515
:103EB0000268D36823F04003D36090F83930DBB256
:103EC000322B06D0012380F8393003F003FC0020A8
:103ED00008BD222380F83930F7E708B590F839306B
:103EE000DBB2222B01D0322B4ED18368B3F5805F39
:103EF00029D00369002B3AD103685A68836A591C98
:103F000081621A70C38D013B9BB2C385002B3DD1EA
:103F10000268D36823F02003D36090F83930DBB215
:103F2000322B2DD00268D36823F48073D3600268EB
:103F3000536923F001035361012380F8393003F002
:103F40009DFB002008BD826A036943B903685B6872
:103F5000C3F308031380836A02338362D2E70368E2
:103F60005B68DBB21380836A01338362CAE703684C
:103F70005B68826A511C816203F07F031370C1E7A2
:103F8000122380F83930DAE70220DBE70020D9E796
:103F9000704710B582B0044603681968DA6811F0FA
:103FA000010F06D002F480721AB1C26B42F0010216
:103FB000C26319685A6902F0010211F0020F04D0BD
:103FC0001AB1E16B41F00401E163196811F0040FCB
:103FD00004D01AB1E16B41F00201E163196811F0FC
:103FE000080F04D01AB1E26B42F00802E2631A68CB
:103FF000DB6803F0200312F0200F00D0ABB9236878
:104000001A68DB6803F0800312F0800F00D083B9D8
:1040100023681A68DB6803F0400312F0400F00D0F9
:104020005BB9E36B6BB902B010BD2046FFF755FFDB
:10403000E5E72046FFF7D6FCEAE72046FFF737FF23
:10404000EFE723681A6801925B680193019B0123E3
:1040500084F839302046FFF79BFFE4E7F0B40A68A4
:1040600092FAA2F2B2FA82F218E00E69C46893FAE8
:10407000A3F5B5FA85F56D00032707FA05F524EADF
:10408000050493FAA3F5B5FA85F56D0006FA05F572
:104090002C43C4604C68022C36D001320B6833FAD2
:1040A00002F464D0012494402340F6D04E680468A2
:1040B00093FAA3F5B5FA85F56D00032707FA05F520
:1040C00024EA050493FAA3F5B5FA85F56D0006FA1E
:1040D00005F52C4304604C68013C012CC5D88E6862
:1040E000846893FAA3F5B5FA85F56D0007FA05F52E
:1040F00024EA050493FAA3F5B5FA85F56D0006FAEE
:1041000005F52C438460B0E793FAA3F4B4FA84F481
:10411000072C15D84D69046A93FAA3F6B6FA86F609
:10412000B6000F2707FA06F624EA060493FAA3F36B
:10413000B3FA83F39B0005FA03F323430362ACE76E
:104140004C69456A1B0A93FAA3F6B6FA86F6B600DE
:104150000F2707FA06F625EA060593FAA3F3B3FA42
:1041600083F39B0004FA03F32B43436295E74A6809
:10417000013A012A02D90120F0BC7047C96842689F
:1041800022EA030201FB03F313434360F3E7024611
:10419000036813F0400F2DD110B4006820F47F4065
:1041A00020F0BF000B684C6823438C682343CC6825
:1041B00023430C6923434C6923438C692343CC6913
:1041C00023430C6A234303431360536823F004031F
:1041D000C88A034353600B6AB3F5005F06D0012021
:1041E000D36923F40063D36110BC70478B8C1361D7
:1041F0000120F5E70020D36923F40063D361704701
:1042000008B5044B03EB8002526852680344187AE5
:10421000904708BDF404002008B5084B1B5C53B957
:10422000064B01221A5403EB8002526812681844AC
:10423000007A904708BD0020FCE700BFF40400208E
:1042400038B5044C04EB80056D68AD680444207AF1
:10425000A84738BDF404002038B5044C04EB8005B1
:104260006D68ED680444207AA84738BDF404002046
:1042700010B5044B03EB8004646824690344187A86
:10428000A04710BDF404002004E00A780270013158
:1042900001301A46531E002AF7D1704702E0017020
:1042A00001301A46531E002AF9D1704770B40346F4
:1042B000002001E029463346541E32B15E1C1878B6
:1042C0004D1C0B782246C01AF4D070BC704700E039
:1042D000013003780BB18B42FAD1184670470000C9
:1042E00030B400252B4601E001250133012B1ED8F7
:1042F00003EB4304A2001C4CA258002AF4D0D0F8CF
:104300000042A242F1D103EB43029400164A224438
:104310005468D0F808229442E7D103EB430294009A
:10432000114A22441489B0F806229442DDD1022BAE
:104330000CD0B1B903EB43039A000B4B13445B89D8
:10434000B3F5807F07D0002030BC70472DB902291B
:1043500005D10020F8E71020F6E70020F4E712204E
:10436000F2E71020F0E700BFD4020020002000E0B8
:104370000130012806D800EB40029300034AD358CD
:10438000002BF5D1023818BF01207047D40200205D
:1043900070B4002300E00133012B1CD803EB43046D
:1043A000A2002E4CA458D0F800229442F3D103EB83
:1043B00043029400294A22445468D0F808229442C7
:1043C000E9D103EB43029400244A22441489B0F853
:1043D00006229442DFD1022B37D039B103EB4302DE
:1043E00090001E4A02445289002A35D179BB03EB62
:1043F00043029100194A0A445189013189B203EB01
:1044000043029000154A02445181581C70BC704709
:104410000133012B06D803EB4304A2000F4CA25832
:10442000002AF5D1022B15D0D0F800520B4E5A00BD
:104430001A44940032193551D0F808425460B0F84B
:104440000602108100205081C7E70023E1E74FF406
:104450008071D4E70020D9E70020D7E7D4020020FC
:104460000138012818D800EB40039A000C4B134484
:104470005B89B3F5807F03D01BB1013B9BB200E0A9
:10448000002300EB40029100054A0A4453812BB9F6
:104490000020034A505070470220704700207047A8
:1044A000D40200200023012B13D810B403EB4301E6
:1044B0008A0008498A58824204D00133012BF5D979
:1044C00010BC704703EB43018A00024900248C5062
:1044D000F3E77047D4020020D0F824320433490AAD
:1044E000D0F8002292F80222B1FBF2F1186830B144
:1044F000814202D3091A0833F8E758680844704724
:10450000CA7E8B7E43EA022390F80022032A01D060
:1045100018467047487D0A7D42EA002243EA02437A
:10452000F6E78176C1F30723C376090C0175090A02
:1045300041757047F0B40C7804F03F04013C04EB83
:10454000440304EB83040127002206E04FF6FF75C5
:10455000AB421FD101320C2A0FD8124B9D5C6B1C51
:10456000CE5C4B5D43EA0623002FEFD0FE2C0FD824
:1045700020F814301F460134ECE70B7813F0400F9D
:104580000AD0FE2C0BD8002320F81430012004E0C0
:10459000002002E0002000E00120F0BC7047002075
:1045A000FBE700BFB4590108F0B44B730F23CB7283
:1045B00000250D738D76CD76561E06EB460306EB71
:1045C00083062B4602E001350C2D11D84FF6FF74FF
:1045D000A34202D030F8163001360B4C645D0B5507
:1045E00001341F0A0F55002BEDD14FF6FF73EAE798
:1045F0004FF6FF74A34202D030F816300BB942F0E8
:1046000040020A70F0BC7047B459010870B582B01E
:10461000054616461C460B22FFF736FE052C11D820
:1046200007221DE001320F2A0CD803F0010101EB33
:1046300044045B0814F4803FF4D084F4883484F09C
:104640002104EFE73388002BEAD002360022EAE7A4
:10465000531E02A8024402F8081C240909D01A4675
:1046600004F00F0303F130013929F1D903F13701C7
:10467000EEE77E2102461A4402F8081C00E00134ED
:104680009C4209D22A5D202AF9D105E02021621C32
:104690002955072A08D81446072BF7D802AA1A4426
:1046A00012F8081C0133F2E702B070BD01460B227C
:1046B0000020C30143EA5003DBB208780344D8B2B8
:1046C0000131013AF5D17047016809B10A4603E0AA
:1046D0004FF0FF3308E0013213781F2B01D93A2B3A
:1046E000F9D13A2B02D000231846704710B44C1C65
:1046F0000B78303B092B07D8A24208D153B90132BD
:104700000260184610BC70474FF0FF33F9E74FF0D6
:10471000FF33F6E74FF0FF33F3E7F8B590F80432D4
:104720000BB90020F8BD0446D0F82C5207460123EF
:104730002A46014690F80102FFF78EFDD8B9002302
:1047400084F80432D4F82032EB1AD4F818229342B9
:1047500013D294F80362012E0BD9D4F818321D44F9
:1047600001232A46394694F80102FFF775FD013E00
:10477000F1E70020D6E70120D4E70020D2E770B5AA
:10478000D0F82C328B4213D004460D46FFF7C5FFFC
:10479000064670B901232A46214694F80102FFF724
:1047A0004FFD10B101264FF0FF35C4F82C5200E048
:1047B0000026304670BD000010B50446002380F886
:1047C00004324FF0FF33C0F82C32FFF7D8FF88BB1C
:1047D00094F8FF2194F8FE3143EA02231BB2184AF1
:1047E000934229D194F8392094F838301B0443EAD5
:1047F000026394F8372043EA022394F836201343E7
:1048000023F07F430F4A934218D094F8552094F830
:1048100054301B0443EA026394F8532043EA022312
:1048200094F85220134323F07F43064A934204D066
:10483000012002E0032000E0022010BD0020FCE780
:1048400055AAFFFF46415400B8B108B5D0F8003270
:10485000ABB193F80012A1B1B3F80612B0F804227C
:10486000914201D0092008BD93F80102FFF7C8FC6E
:1048700010F0010F07D10020F5E70920704709204B
:10488000F1E70920EFE70920EDE70000F0B585B07A
:1048900006461746002303600846FFF715FF051E6E
:1048A000C0F28E81D14B03EB85039C69002C00F094
:1048B0008A81346094F800327BB194F80102FFF7EA
:1048C0009FFC10F0010F08D1002F00F07E8110F046
:1048D000040F40F07C81002073E1002384F8003253
:1048E000E8B284F80102FFF797FC10F0010F40F0E6
:1048F00070811FB110F0040F40F06D81002120463F
:10490000FFF75AFF0346012800F0CB800026032B57
:1049100000F06381002B40F06281227BE37A43EA5E
:1049200002231BB2B3F5007F40F05B81E27DA37DE3
:1049300053EA02230DD194F8272094F826301B0463
:1049400043EA026394F8252043EA022394F82420E2
:104950001343C4F81832217C84F803124A1ED2B2E1
:10496000012A00F2408103FB01F1627B84F80222FC
:10497000002A00F04381501E024240F04181A07C99
:10498000657C45EA0025A4F8085215F00F0F40F0A9
:104990003981277DE07C50EA07200DD194F82370FF
:1049A00094F82200000440EA076094F8217040EA7D
:1049B000072094F82070384394F80FE0A77B57EA5B
:1049C0000E2E00F021810EEB010C0CEB151C604546
:1049D000C0F01C81A0EB0C00B0FBF2F2002A00F04A
:1049E000178140F6F570824274D801274FF6F570B2
:1049F000824200D903270232C4F81422C4F81C6290
:104A00000EEB0600C4F82002B444C4F828C2032FF9
:104A100062D0002D00F000810144C4F82412022F5E
:104A20006FD002EB420102F0010202EB510202F2EE
:104A3000FF12B3EB522FC0F0F1804FF0FF33C4F8F8
:104A40001032C4F80C32802384F80532032F5AD078
:104A500084F80072654A938B01339BB29383A4F868
:104A600006322046FFF71EFD0020AAE0002304AA1C
:104A700002EB810242F8103C0131032913D80B01EB
:104A800003F5DF7323441A79002AEFD0D87A9A7A93
:104A9000120442EA0062587A42EA00221B7A134367
:104AA000E5E70021E9E700250BE031462046FFF766
:104AB00083FE034600283FF42AAF0135032D3FF65D
:104AC00026AF04AB03EB850353F8106C002EECD13A
:104AD0000223F2E7022789E7002D40F09B8094F83B
:104AE0002F0094F82E10090441EA006194F82D007B
:104AF00041EA002194F82C000143C4F824129200EA
:104B000095E7520093E794F8312094F8303043EA67
:104B100002231BB2012B9BD1711C2046FFF72FFEF5
:104B2000002895D1002384F8053294F8FF2194F8E9
:104B3000FE3143EA02231BB22D4A934288D1E27828
:104B4000A3781B0443EA0263627843EA02232278D3
:104B50001343284A93427FF47BAF94F8E72194F8FB
:104B6000E6311B0443EA026394F8E52143EA022399
:104B700094F8E4211343204A93427FF469AF94F8F8
:104B8000EB2194F8EA311B0443EA026394F8E9212B
:104B900043EA022394F8E8211343C4F8103294F84E
:104BA000EF2194F8EE311B0443EA026394F8ED21FF
:104BB00043EA022394F8EC211343C4F80C3247E78C
:104BC0000B2005B0F0BD0C20FBE70020F9E70A2020
:104BD000F7E70320F5E70A20F3E70120F1E70D20CE
:104BE000EFE70D20EDE70D20EBE700BFD40200203A
:104BF00055AAFFFF52526141727241610D20E0E7F8
:104C00000D20DEE70D20DCE70D20DAE70D20D8E7E8
:104C10000D20D6E70D20D4E70D20D2E70D20D0E7F8
:104C20002DE9F04F83B080460F460E6800E0013654
:104C300033782F2BFBD05C2BF9D0D8F820520024EE
:104C400002E025F81490544604F1010A305D1F2853
:104C500017D92F2815D05C2813D0FE2C00F2E58040
:104C6000012101F0BDFD8146002800F0E0807F2891
:104C7000E7D801467048FFF72AFB0028E1D006205C
:104C80008BE056443E601F2801D8042702E000272D
:104C900000E0013C44B104F10043013B35F813301E
:104CA000202BF6D02E2BF4D0002C00F0C280002652
:104CB00025F814600B222021D8F81802FFF7EEFA2D
:104CC00000E0013635F81620202AFAD02E2AF8D036
:104CD0001EB147F0030700E0013C6CB104F1004253
:104CE000013A35F812202E2AF6D14FF0080B4FF07A
:104CF000000ACDF804A00AE0A2464FF0080B0023FA
:104D0000019304E04C450BD047F003074E4606F1F3
:104D1000010935F81660FEB1202EF5D02E2EF1D007
:104D2000DA4510D24C450ED07F2E46D8002E52D1F7
:104D300047F003075F26D8F8183203F80A604E469A
:104D40000AF1010AE3E7BBF10B0F29D04C4501D072
:104D500047F003074C4526D2D8F818321A78E52ACE
:104D600055D0BBF1080F55D0019B03F00C020C2A63
:104D700003D003F00303032B01D147F0020717F020
:104D8000020F06D1019B03F00303012B47D0042A35
:104D900048D0D8F81832DF72002003B0BDE8F08F99
:104DA00047F00307D8E7019B9B00DBB2019326463F
:104DB0004FF00B0B4FF0080AA9E70021304601F035
:104DC0000FFD064620B1A0F180061C4B33441E7C2B
:104DD00047F00207AAE731461948FFF778FA00289A
:104DE000A6D1A6F141039BB2192B04D8019B43F035
:104DF000020301939FE7A6F161039BB2192B9AD896
:104E0000019B43F001030193203EB6B293E70522D4
:104E10001A70A6E7019B9B00DBB20193A4E747F061
:104E20001007B4E747F00807B3E70620B5E7062008
:104E3000B3E70620B1E700BFB8910108B4590108F3
:104E4000C4910108F8B501F10905D0F81032002B22
:104E50003DD0D0F8146200230AE0E52310E02E24B0
:104E60002C7001350EE0102415E02B70013513462F
:104E70000A2B15D85A1CF35C202BF8D0052BECD04C
:104E8000092AECD0A3F14104E4B2192CEDD8377B08
:104E9000082AE8D808242742E7D02033DBB2E4E729
:104EA000F37A0B72F27FB37F1B0443EA0263727FD3
:104EB00043EA0223327F13430B60727E337E43EA60
:104EC00002238B80F27DB37D43EA0223CB80002353
:104ED0002B708D6915B3D0F81032E3B1CC69DCB119
:104EE000B0F824224FF6FF739A4218D00E46D0F83D
:104EF0002032002402E028553B4601349F1C1888CC
:104F000050B1002101F06CFC58B1F369013B9C42A7
:104F1000F1D3002400E0002400232B55F8BD002429
:104F2000FAE70024F8E700002DE9F84380460E4632
:104F30000D7825F04005013D05EB450305EB8305A4
:104F40000127002410E001F067FC0746FE2D24D85D
:104F500005F1010938F8150001F05EFCB8421ED1D8
:104F60004D4601340C2C0ED8114B1B5D5A1CB25C03
:104F7000F05C40EA0220002FE5D14FF6FF73984223
:104F8000EFD000200EE0337813F0400F09D05FB16E
:104F900038F8153053B9012004E0002002E0002069
:104FA00000E00120BDE8F8830120FBE70020F9E7DD
:104FB000B459010838B50446FFF7AFFB054658B9A8
:104FC00094F80032032B09D00022114694F8010214
:104FD000FFF74EF900B10125284638BD94F8053297
:104FE000012BF1D14FF4007200212046FFF756F952
:104FF000552384F8FE31AA2384F8FF31522323700D
:1050000063706123A3704122E270722184F8E4117D
:1050100084F8E51184F8E62184F8E731D4F81032F9
:1050200084F8E831C3F3072284F8E921C3F3074287
:1050300084F8EA211B0E84F8EB31D4F80C3284F8A2
:10504000EC31C3F3072284F8ED21C3F3074284F85F
:10505000EE211B0E84F8EF31D4F81C220132C4F883
:105060002C220123214694F80102FFF7F5F80023D2
:1050700084F80532A8E70239D0F81432023B8B429B
:1050800006D990F80232D0F8280201FB03007047DD
:105090000020704701295CD9F8B5D0F814328B4252
:1050A00059D90C46064690F80032022B29D0032B22
:1050B00037D0012B01D001204EE001EB5105D0F893
:1050C000201201EB5521FFF75AFB002845D16F1C38
:1050D000C5F30805755DD6F8201201EB572130465F
:1050E000FFF74DFB00283BD1C7F30807F05D45EA09
:1050F000002014F0010F01D000092DE0C0F30B00D7
:105100002AE0D0F8201201EB1421FFF738FB50BB46
:10511000610001F4FF7173185B78705C40EA032052
:105120001AE0D0F8201201EBD411FFF728FBE8B900
:10513000A10001F4FE717218D07893781B0443EA41
:105140000063507843EA0023705C184320F07040FD
:1051500002E0012070470120F8BD4FF0FF30FBE76F
:105160004FF0FF30F8E74FF0FF30F5E74FF0FF303A
:10517000F2E7F8B50646A0F80612D0F80842012C6E
:1051800044D00D46D0F80032D3F81422A2423FD9C1
:105190001CB993F80022032A17D0CCB9B3F808221F
:1051A000AA4237D9D3F82402C6F80C42D0B300EB98
:1051B0001510C6F81002D6F8003205F00F0503EB03
:1051C0004515C6F81452002023E0D3F82442E4E742
:1051D00093F802723F01BD4212D32146D6F8000275
:1051E000FFF758FF0446B0F1FF3F15D0012815D94D
:1051F000D6F80032D3F81432834211D9ED1BEAE716
:105200002146D6F80002FFF736FFCDE7022000E086
:105210000220F8BD0220FCE70120FAE70220F8E7AF
:105220000220F6E70220F4E7012940F28B80D0F853
:1052300014328B4240F288802DE9F04116460C462C
:10524000054690F80032022B45D0032B58D0012B95
:1052500003D002231846BDE8F08101EB5107D0F8D6
:10526000201201EB5721FFF78AFA03460028F1D1FB
:1052700007F10108C7F3080714F0010420D0EB5729
:1052800003F00F03320102F47F621343DBB2EB55EC
:10529000012385F80432D5F8201201EB5821284665
:1052A000FFF76DFA03460028D4D1C8F308084CB1C3
:1052B000C6F3071605F80860012285F80422C9E73D
:1052C000F3B2E4E715F9081021F00F01C6F3032645
:1052D0000E43F6B2EEE7D0F8201201EB1421FFF7EF
:1052E0004EFA03460028B5D1610001F4FF71681839
:1052F0006E54C6F307264670012285F80422A9E7FA
:10530000D0F8201201EBD411FFF739FA0346002838
:10531000A0D1A10001F4FE716818C478827812044B
:1053200042EA046202F0704216436E54C6F307224A
:105330004270C6F307428270360EC670012285F8AD
:10534000042287E7022300E0022318467047F8B5DD
:1053500005460F4641B9D0F80C629EB1D0F8143220
:10536000B34210D801260EE0FFF794FE0346012851
:105370004BD9B0F1FF3F4DD0D5F81422824249D825
:105380003E4600E0012634460CE021462846FFF761
:1053900081FE034678B1B0F1FF3F3BD0012839D000
:1053A000B44236D00134D5F81432A342EDD8012EE0
:1053B0002DD90224E9E76FF0704221462846FFF715
:1053C00033FF034600B997B9C3B9C5F80C42D5F805
:1053D0001032B3F1FF3F1FD0013BC5F8103295F8F2
:1053E000053243F0010385F80532234612E02246D8
:1053F00039462846FFF718FF0346E5E7012B01D0A1
:10540000012307E04FF0FF3304E0012302E0002313
:1054100000E000231846F8BD2346FBE72DE9F843DA
:10542000B0F806526B1C9AB2002A00F08480D0F8C3
:105430001022002A00F081800F46044613F00F0668
:105440000BD10132C0F81022D0F80C1289B9D0F873
:105450000022B2F808229A4271D96B1CA4F80632D5
:10546000D4F8003203EB4613C4F814320020BDE830
:10547000F883D0F8000290F80222013A12EA1318D9
:10548000EBD1FFF707FE814601285AD9B0F1FF3F63
:1054900059D0D4F80002D0F814324B4541D8002F2F
:1054A00053D0D4F80C12FFF752FF814600284ED09B
:1054B00001284ED0B0F1FF3F4DD0D4F80002FFF7E5
:1054C0002CF908B10120D2E74FF400720021D4F882
:1054D0000002FEF7E3FED4F8007249463846FFF7B3
:1054E000CAFDC7F82C02D4F8003293F802224245D4
:1054F00011D9012283F80422D4F80002FFF70DF934
:1055000058BBD4F80022D2F82C320133C2F82C3226
:1055100008F10108E7E7D3F82C22A2EB0802C3F850
:105520002C22C4F80C924946D4F80002FFF7A3FDE0
:10553000C4F8100291E7042099E7042097E70420BB
:1055400095E7022093E7012091E704208FE70720E9
:105550008DE702208BE7012089E7012087E72DE90D
:10556000F04104460021FFF704FE0646002867D1FB
:105570004FF6FF73A4F824324FF0FF0847460BE0C4
:105580004FF6FF73A4F82432FF2700212046FFF7CF
:1055900045FF0646002853D1D4F81012D4F8000273
:1055A000FFF7EDF8064600284AD1D4F814522B78BC
:1055B000002B44D0EA7A02F03F01E52BE0D012F054
:1055C000080F01D00F29DBD10F2916D027B92846A3
:1055D000FFF76CF8404533D0D4F81812CB7A13F0AB
:1055E000010F04D10B222846FEF760FE40B34FF6B0
:1055F000FF73A4F82432FF27C7E7D4F8200200285D
:10560000C3D013F0400F08D095F80D8003F0BF030E
:10561000B4F80622A4F824221F46BB4201D0FF277B
:10562000B3E76B7B434501D0FF27AEE72946FFF781
:105630007BFC10B1013FFFB2A7E7FF27A5E70426D7
:105640003046BDE8F08110B582B0044601910B7878
:105650002F2B01D05C2B01D1013101910023C4F823
:105660000832019B1B781F2B1DD901A92046FFF78B
:10567000D7FA0346F8B92046FFF771FFD4F818327D
:10568000DA7A0346D0B912F0040F14D1D4F8141208
:10569000CB7A13F0100F18D0D4F80002FEF730FFC9
:1056A000C4F80802E1E700212046FFF762FD034647
:1056B0000022C4F81422184602B010BD0428FAD102
:1056C00012F0040FF7D10523F5E70523F3E770B5D2
:1056D00004460E460021FFF74CFD0346D8B90025CD
:1056E00008E00135B54216D001212046FFF796FEAD
:1056F000034680B9D4F81012D4F80002FFF73FF83F
:10570000034640B9D4F814221278E52AE9D0002AD9
:10571000E7D00025E8E7042B01D0184670BD072329
:10572000FBE700002DE9F04184B00546D0F818826F
:10573000D0F820720C22414601A8FEF7A5FD9DF885
:105740000F3013F0010F1ED0002388F80B30C5F87E
:1057500020320124632C0CD823463A4601A9404646
:10576000FEF754FF2846FFF7FAFE064608B9013453
:10577000F0E7642C7BD0042E15D19DF80F3088F80B
:105780000B30C5F820729DF80F3013F0020F1AD1BC
:10579000012421462846FFF79AFF064608B9013C36
:1057A00013D1002E3FD0304604B0BDE8F081013364
:1057B00037F81320002AFAD103F119042D4BA3FB6B
:1057C0000434A408E5E70023F2E7B5F80612091B44
:1057D0002846FFF7CEFC06460028E2D1D5F818028D
:1057E000FEF764FF0746D5F81012D5F80002FEF761
:1057F000C6FF06460028D4D13B46E2B2D5F81412C3
:10580000D5F82002FEF7D0FED5F80032012283F849
:10581000042200212846FFF701FE06460028C0D1D9
:10582000013CE0D1BDE7D5F81012D5F80002FEF733
:10583000A6FF06460028B6D120220021D5F8140282
:10584000FEF72CFD0B22D5F81812D5F81402FEF73E
:105850001BFDD5F81832DB7AD5F8142203F01803B3
:105860001373D5F80032012283F804229BE7072640
:1058700099E700BF4FECC44E2DE9F04104460F46B6
:105880004FF0FF084646042532E00F2A1CD113F0E2
:10589000400F08D091F80D8003F0BF03B4F8062242
:1058A000A4F824221E46B34201D0FF261AE04B7B07
:1058B000434501D0FF2615E0D4F82002FEF73AFE5A
:1058C000A0B3013EF6B20DE026B90846FEF7EEFEA3
:1058D00040452ED04FF6FF73A4F8243229E0FF266E
:1058E00000E0FF2600212046FFF798FD054600BB9B
:1058F000D4F81012E9B1D4F80002FEF740FF0546D3
:10590000B8B9D4F814120B7893B1CA7A02F03F02F6
:10591000E52BE4D02E2BE4D022F02000082814BF81
:1059200000200120B842B0D0FF26DBE7FF26D9E7F0
:10593000042515B10023C4F810322846BDE8F081D3
:1059400070B50446B0F806623146B0F824324FF61E
:10595000FF72934200D019462046FFF70AFC054625
:1059600018BBD4F81012D4F80002FEF708FF054661
:10597000C8B920220021D4F81402FEF78FFCD4F815
:105980001432E5221A70D4F80032012283F804227E
:10599000B4F806329E4206D900212046FFF73EFDAC
:1059A00005460028DDD0042D01D0284670BD022513
:1059B000FBE7F8B501292DD904460D46D0F814327D
:1059C0008B4229D9002709E00133C4F8103294F83A
:1059D000053243F0010384F805323546D4F8143219
:1059E000AB421AD929462046FFF754FB0646A0B120
:1059F000012814D0B0F1FF3F13D0002229462046E1
:105A0000FFF712FC074640B9D4F81032B3F1FF3F5C
:105A1000DAD1E2E7022700E002273846F8BD022784
:105A2000FBE70127F9E7000070B584B00190009111
:105A3000154604A840F8041DFEF746FE041E1FDBB1
:105A4000114B03EB84039E692EB13046FEF72AFD0D
:105A5000002386F80032019B13B1002283F8002254
:105A6000094800EB8400836163B1012D02D000205E
:105A700004B070BD0022694601A8FEF707FFF7E7F2
:105A80000B20F5E70020F3E7D40200202DE9F043D6
:105A9000ADF5117D0191002800F0D980044615462E
:105AA0000023C0F8003202F01F0802F01E0201A914
:105AB00086A8FEF7EBFE064620B130460DF5117DB7
:105AC000BDE8F08303AB8C93634B8E93019906A8DA
:105AD000FFF7B9FD8B9F064650B9002F59D038F01B
